{
  "_format": "hh-sol-artifact-1",
  "contractName": "AirdropClaimContract",
  "sourceName": "contracts/AirdropClaim.sol",
  "abi": [
    {
      "inputs": [
        {
          "internalType": "address",
          "name": "_erc20TokenAddress",
          "type": "address"
        },
        {
          "internalType": "bytes32",
          "name": "_merkleRoot",
          "type": "bytes32"
        }
      ],
      "stateMutability": "nonpayable",
      "type": "constructor"
    },
    {
      "inputs": [],
      "name": "ReentrancyGuardReentrantCall",
      "type": "error"
    },
    {
      "anonymous": false,
      "inputs": [
        {
          "indexed": true,
          "internalType": "address",
          "name": "to",
          "type": "address"
        },
        {
          "indexed": false,
          "internalType": "uint256",
          "name": "amount",
          "type": "uint256"
        }
      ],
      "name": "AirdropClaimed",
      "type": "event"
    },
    {
      "anonymous": false,
      "inputs": [
        {
          "indexed": false,
          "internalType": "bytes32",
          "name": "merkleRoot",
          "type": "bytes32"
        }
      ],
      "name": "MerkleRootHashUpdated",
      "type": "event"
    },
    {
      "inputs": [
        {
          "internalType": "bytes32[]",
          "name": "_merkleProofs",
          "type": "bytes32[]"
        },
        {
          "internalType": "uint256",
          "name": "_amount",
          "type": "uint256"
        }
      ],
      "name": "ClaimAirdrop",
      "outputs": [],
      "stateMutability": "nonpayable",
      "type": "function"
    },
    {
      "inputs": [
        {
          "internalType": "bytes32",
          "name": "_merkleRoot",
          "type": "bytes32"
        }
      ],
      "name": "UpdateMerkleRoot",
      "outputs": [],
      "stateMutability": "nonpayable",
      "type": "function"
    },
    {
      "inputs": [],
      "name": "erc20TokenAddress",
      "outputs": [
        {
          "internalType": "address",
          "name": "",
          "type": "address"
        }
      ],
      "stateMutability": "view",
      "type": "function"
    }
  ],
  "bytecode": "0x60806040523480156200001157600080fd5b5060405162000eb238038062000eb2833981810160405281019062000037919062000175565b600160008190555033600360006101000a81548173ffffffffffffffffffffffffffffffffffffffff021916908373ffffffffffffffffffffffffffffffffffffffff16021790555081600160006101000a81548173ffffffffffffffffffffffffffffffffffffffff021916908373ffffffffffffffffffffffffffffffffffffffff160217905550806002819055505050620001bc565b600080fd5b600073ffffffffffffffffffffffffffffffffffffffff82169050919050565b60006200010282620000d5565b9050919050565b6200011481620000f5565b81146200012057600080fd5b50565b600081519050620001348162000109565b92915050565b6000819050919050565b6200014f816200013a565b81146200015b57600080fd5b50565b6000815190506200016f8162000144565b92915050565b600080604083850312156200018f576200018e620000d0565b5b60006200019f8582860162000123565b9250506020620001b2858286016200015e565b9150509250929050565b610ce680620001cc6000396000f3fe608060405234801561001057600080fd5b50600436106100415760003560e01c8063ae8bdbc114610046578063f835cd3c14610062578063fa27eeb514610080575b600080fd5b610060600480360381019061005b9190610627565b61009c565b005b61006a61016d565b6040516100779190610695565b60405180910390f35b61009a6004803603810190610095919061083f565b610193565b005b600360009054906101000a900473ffffffffffffffffffffffffffffffffffffffff1673ffffffffffffffffffffffffffffffffffffffff163373ffffffffffffffffffffffffffffffffffffffff161461012c576040517f08c379a0000000000000000000000000000000000000000000000000000000008152600401610123906108f8565b60405180910390fd5b806002819055507f15044df2357bec30fae0d99dbe2ef3e333b693f18ea604eaf66c5302f50cc704816040516101629190610927565b60405180910390a150565b600160009054906101000a900473ffffffffffffffffffffffffffffffffffffffff1681565b61019b6104e4565b60003390506000600160009054906101000a900473ffffffffffffffffffffffffffffffffffffffff1690506000600460008473ffffffffffffffffffffffffffffffffffffffff1673ffffffffffffffffffffffffffffffffffffffff1681526020019081526020016000209050600015158160000160009054906101000a900460ff16151514610262576040517f08c379a00000000000000000000000000000000000000000000000000000000081526004016102599061098e565b60405180910390fd5b60008385604051602001610277929190610a17565b60405160208183030381529060405280519060200120905061029c866002548361052a565b6102db576040517f08c379a00000000000000000000000000000000000000000000000000000000081526004016102d290610a8f565b60405180910390fd5b60008373ffffffffffffffffffffffffffffffffffffffff166370a08231306040518263ffffffff1660e01b81526004016103169190610695565b602060405180830381865afa158015610333573d6000803e3d6000fd5b505050506040513d601f19601f820116820180604052508101906103579190610ac4565b90508581101561039c576040517f08c379a000000000000000000000000000000000000000000000000000000000815260040161039390610b3d565b60405180910390fd5b60018360000160006101000a81548160ff02191690831515021790555042836001018190555060008473ffffffffffffffffffffffffffffffffffffffff1663a9059cbb87896040518363ffffffff1660e01b81526004016103ff929190610b6c565b6020604051808303816000875af115801561041e573d6000803e3d6000fd5b505050506040513d601f19601f820116820180604052508101906104429190610bcd565b905080610484576040517f08c379a000000000000000000000000000000000000000000000000000000000815260040161047b90610c46565b60405180910390fd5b8573ffffffffffffffffffffffffffffffffffffffff167f650e45f04ef8a0c267b2f78d983913f69ae3a353b2b32de5429307522be0ab55886040516104ca9190610c66565b60405180910390a25050505050506104e0610541565b5050565b600260005403610520576040517f3ee5aeb500000000000000000000000000000000000000000000000000000000815260040160405180910390fd5b6002600081905550565b600082610537858461054b565b1490509392505050565b6001600081905550565b60008082905060005b8451811015610590576105818286838151811061057457610573610c81565b5b602002602001015161059b565b91508080600101915050610554565b508091505092915050565b60008183106105b3576105ae82846105c6565b6105be565b6105bd83836105c6565b5b905092915050565b600082600052816020526040600020905092915050565b6000604051905090565b600080fd5b600080fd5b6000819050919050565b610604816105f1565b811461060f57600080fd5b50565b600081359050610621816105fb565b92915050565b60006020828403121561063d5761063c6105e7565b5b600061064b84828501610612565b91505092915050565b600073ffffffffffffffffffffffffffffffffffffffff82169050919050565b600061067f82610654565b9050919050565b61068f81610674565b82525050565b60006020820190506106aa6000830184610686565b92915050565b600080fd5b6000601f19601f8301169050919050565b7f4e487b7100000000000000000000000000000000000000000000000000000000600052604160045260246000fd5b6106fe826106b5565b810181811067ffffffffffffffff8211171561071d5761071c6106c6565b5b80604052505050565b60006107306105dd565b905061073c82826106f5565b919050565b600067ffffffffffffffff82111561075c5761075b6106c6565b5b602082029050602081019050919050565b600080fd5b600061078561078084610741565b610726565b905080838252602082019050602084028301858111156107a8576107a761076d565b5b835b818110156107d157806107bd8882610612565b8452602084019350506020810190506107aa565b5050509392505050565b600082601f8301126107f0576107ef6106b0565b5b8135610800848260208601610772565b91505092915050565b6000819050919050565b61081c81610809565b811461082757600080fd5b50565b60008135905061083981610813565b92915050565b60008060408385031215610856576108556105e7565b5b600083013567ffffffffffffffff811115610874576108736105ec565b5b610880858286016107db565b92505060206108918582860161082a565b9150509250929050565b600082825260208201905092915050565b7f4163636573732064656e69656400000000000000000000000000000000000000600082015250565b60006108e2600d8361089b565b91506108ed826108ac565b602082019050919050565b60006020820190508181036000830152610911816108d5565b9050919050565b610921816105f1565b82525050565b600060208201905061093c6000830184610918565b92915050565b7f41697264726f7020616c726561647920636c61696d6564000000000000000000600082015250565b600061097860178361089b565b915061098382610942565b602082019050919050565b600060208201905081810360008301526109a78161096b565b9050919050565b60008160601b9050919050565b60006109c6826109ae565b9050919050565b60006109d8826109bb565b9050919050565b6109f06109eb82610674565b6109cd565b82525050565b6000819050919050565b610a11610a0c82610809565b6109f6565b82525050565b6000610a2382856109df565b601482019150610a338284610a00565b6020820191508190509392505050565b7f496e76616c69642070726f6f6673000000000000000000000000000000000000600082015250565b6000610a79600e8361089b565b9150610a8482610a43565b602082019050919050565b60006020820190508181036000830152610aa881610a6c565b9050919050565b600081519050610abe81610813565b92915050565b600060208284031215610ada57610ad96105e7565b5b6000610ae884828501610aaf565b91505092915050565b7f706c656173652074727920616761696e206c6174657200000000000000000000600082015250565b6000610b2760168361089b565b9150610b3282610af1565b602082019050919050565b60006020820190508181036000830152610b5681610b1a565b9050919050565b610b6681610809565b82525050565b6000604082019050610b816000830185610686565b610b8e6020830184610b5d565b9392505050565b60008115159050919050565b610baa81610b95565b8114610bb557600080fd5b50565b600081519050610bc781610ba1565b92915050565b600060208284031215610be357610be26105e7565b5b6000610bf184828501610bb8565b91505092915050565b7f41697264726f7020636c61696d207472616e73666572206661696c6564000000600082015250565b6000610c30601d8361089b565b9150610c3b82610bfa565b602082019050919050565b60006020820190508181036000830152610c5f81610c23565b9050919050565b6000602082019050610c7b6000830184610b5d565b92915050565b7f4e487b7100000000000000000000000000000000000000000000000000000000600052603260045260246000fdfea26469706673582212200aac729eaee360a89ffa75ed894ca4eb0593161eb9c1779c0159e601db11676e64736f6c63430008180033",
  "linkReferences": {},
  "deployedLinkReferences": {}
}