{
  "_format": "hh-sol-artifact-1",
  "contractName": "AclToken",
  "sourceName": "contracts/Token.sol",
  "abi": [
    {
      "inputs": [
        {
          "internalType": "uint256",
          "name": "initialSupply",
          "type": "uint256"
        }
      ],
      "stateMutability": "nonpayable",
      "type": "constructor"
    },
    {
      "inputs": [
        {
          "internalType": "address",
          "name": "spender",
          "type": "address"
        },
        {
          "internalType": "uint256",
          "name": "allowance",
          "type": "uint256"
        },
        {
          "internalType": "uint256",
          "name": "needed",
          "type": "uint256"
        }
      ],
      "name": "ERC20InsufficientAllowance",
      "type": "error"
    },
    {
      "inputs": [
        {
          "internalType": "address",
          "name": "sender",
          "type": "address"
        },
        {
          "internalType": "uint256",
          "name": "balance",
          "type": "uint256"
        },
        {
          "internalType": "uint256",
          "name": "needed",
          "type": "uint256"
        }
      ],
      "name": "ERC20InsufficientBalance",
      "type": "error"
    },
    {
      "inputs": [
        {
          "internalType": "address",
          "name": "approver",
          "type": "address"
        }
      ],
      "name": "ERC20InvalidApprover",
      "type": "error"
    },
    {
      "inputs": [
        {
          "internalType": "address",
          "name": "receiver",
          "type": "address"
        }
      ],
      "name": "ERC20InvalidReceiver",
      "type": "error"
    },
    {
      "inputs": [
        {
          "internalType": "address",
          "name": "sender",
          "type": "address"
        }
      ],
      "name": "ERC20InvalidSender",
      "type": "error"
    },
    {
      "inputs": [
        {
          "internalType": "address",
          "name": "spender",
          "type": "address"
        }
      ],
      "name": "ERC20InvalidSpender",
      "type": "error"
    },
    {
      "anonymous": false,
      "inputs": [
        {
          "indexed": true,
          "internalType": "address",
          "name": "owner",
          "type": "address"
        },
        {
          "indexed": true,
          "internalType": "address",
          "name": "spender",
          "type": "address"
        },
        {
          "indexed": false,
          "internalType": "uint256",
          "name": "value",
          "type": "uint256"
        }
      ],
      "name": "Approval",
      "type": "event"
    },
    {
      "anonymous": false,
      "inputs": [
        {
          "indexed": true,
          "internalType": "address",
          "name": "from",
          "type": "address"
        },
        {
          "indexed": true,
          "internalType": "address",
          "name": "to",
          "type": "address"
        },
        {
          "indexed": false,
          "internalType": "uint256",
          "name": "value",
          "type": "uint256"
        }
      ],
      "name": "Transfer",
      "type": "event"
    },
    {
      "inputs": [
        {
          "internalType": "address",
          "name": "owner",
          "type": "address"
        },
        {
          "internalType": "address",
          "name": "spender",
          "type": "address"
        }
      ],
      "name": "allowance",
      "outputs": [
        {
          "internalType": "uint256",
          "name": "",
          "type": "uint256"
        }
      ],
      "stateMutability": "view",
      "type": "function"
    },
    {
      "inputs": [
        {
          "internalType": "address",
          "name": "spender",
          "type": "address"
        },
        {
          "internalType": "uint256",
          "name": "value",
          "type": "uint256"
        }
      ],
      "name": "approve",
      "outputs": [
        {
          "internalType": "bool",
          "name": "",
          "type": "bool"
        }
      ],
      "stateMutability": "nonpayable",
      "type": "function"
    },
    {
      "inputs": [
        {
          "internalType": "address",
          "name": "account",
          "type": "address"
        }
      ],
      "name": "balanceOf",
      "outputs": [
        {
          "internalType": "uint256",
          "name": "",
          "type": "uint256"
        }
      ],
      "stateMutability": "view",
      "type": "function"
    },
    {
      "inputs": [],
      "name": "decimals",
      "outputs": [
        {
          "internalType": "uint8",
          "name": "",
          "type": "uint8"
        }
      ],
      "stateMutability": "view",
      "type": "function"
    },
    {
      "inputs": [
        {
          "internalType": "address",
          "name": "_to",
          "type": "address"
        },
        {
          "internalType": "uint256",
          "name": "_amount",
          "type": "uint256"
        }
      ],
      "name": "mint",
      "outputs": [],
      "stateMutability": "nonpayable",
      "type": "function"
    },
    {
      "inputs": [],
      "name": "name",
      "outputs": [
        {
          "internalType": "string",
          "name": "",
          "type": "string"
        }
      ],
      "stateMutability": "view",
      "type": "function"
    },
    {
      "inputs": [],
      "name": "symbol",
      "outputs": [
        {
          "internalType": "string",
          "name": "",
          "type": "string"
        }
      ],
      "stateMutability": "view",
      "type": "function"
    },
    {
      "inputs": [],
      "name": "totalSupply",
      "outputs": [
        {
          "internalType": "uint256",
          "name": "",
          "type": "uint256"
        }
      ],
      "stateMutability": "view",
      "type": "function"
    },
    {
      "inputs": [
        {
          "internalType": "address",
          "name": "to",
          "type": "address"
        },
        {
          "internalType": "uint256",
          "name": "value",
          "type": "uint256"
        }
      ],
      "name": "transfer",
      "outputs": [
        {
          "internalType": "bool",
          "name": "",
          "type": "bool"
        }
      ],
      "stateMutability": "nonpayable",
      "type": "function"
    },
    {
      "inputs": [
        {
          "internalType": "address",
          "name": "from",
          "type": "address"
        },
        {
          "internalType": "address",
          "name": "to",
          "type": "address"
        },
        {
          "internalType": "uint256",
          "name": "value",
          "type": "uint256"
        }
      ],
      "name": "transferFrom",
      "outputs": [
        {
          "internalType": "bool",
          "name": "",
          "type": "bool"
        }
      ],
      "stateMutability": "nonpayable",
      "type": "function"
    }
  ],
  "bytecode": "0x60806040523480156200001157600080fd5b50604051620018f8380380620018f8833981810160405281019062000037919062000420565b6040518060400160405280600881526020017f546561722041434c0000000000000000000000000000000000000000000000008152506040518060400160405280600381526020017f41636c00000000000000000000000000000000000000000000000000000000008152508160039081620000b49190620006c2565b508060049081620000c69190620006c2565b50505033600560006101000a81548173ffffffffffffffffffffffffffffffffffffffff021916908373ffffffffffffffffffffffffffffffffffffffff1602179055506200011c33826200012360201b60201c565b50620008e0565b600073ffffffffffffffffffffffffffffffffffffffff168273ffffffffffffffffffffffffffffffffffffffff1603620001985760006040517fec442f050000000000000000000000000000000000000000000000000000000081526004016200018f9190620007ee565b60405180910390fd5b620001ac60008383620001b060201b60201c565b5050565b600073ffffffffffffffffffffffffffffffffffffffff168373ffffffffffffffffffffffffffffffffffffffff160362000206578060026000828254620001f991906200083a565b92505081905550620002dc565b60008060008573ffffffffffffffffffffffffffffffffffffffff1673ffffffffffffffffffffffffffffffffffffffff1681526020019081526020016000205490508181101562000295578381836040517fe450d38c0000000000000000000000000000000000000000000000000000000081526004016200028c9392919062000886565b60405180910390fd5b8181036000808673ffffffffffffffffffffffffffffffffffffffff1673ffffffffffffffffffffffffffffffffffffffff16815260200190815260200160002081905550505b600073ffffffffffffffffffffffffffffffffffffffff168273ffffffffffffffffffffffffffffffffffffffff160362000327578060026000828254039250508190555062000374565b806000808473ffffffffffffffffffffffffffffffffffffffff1673ffffffffffffffffffffffffffffffffffffffff168152602001908152602001600020600082825401925050819055505b8173ffffffffffffffffffffffffffffffffffffffff168373ffffffffffffffffffffffffffffffffffffffff167fddf252ad1be2c89b69c2b068fc378daa952ba7f163c4a11628f55a4df523b3ef83604051620003d39190620008c3565b60405180910390a3505050565b600080fd5b6000819050919050565b620003fa81620003e5565b81146200040657600080fd5b50565b6000815190506200041a81620003ef565b92915050565b600060208284031215620004395762000438620003e0565b5b6000620004498482850162000409565b91505092915050565b600081519050919050565b7f4e487b7100000000000000000000000000000000000000000000000000000000600052604160045260246000fd5b7f4e487b7100000000000000000000000000000000000000000000000000000000600052602260045260246000fd5b60006002820490506001821680620004d457607f821691505b602082108103620004ea57620004e96200048c565b5b50919050565b60008190508160005260206000209050919050565b60006020601f8301049050919050565b600082821b905092915050565b600060088302620005547fffffffffffffffffffffffffffffffffffffffffffffffffffffffffffffffff8262000515565b62000560868362000515565b95508019841693508086168417925050509392505050565b6000819050919050565b6000620005a36200059d6200059784620003e5565b62000578565b620003e5565b9050919050565b6000819050919050565b620005bf8362000582565b620005d7620005ce82620005aa565b84845462000522565b825550505050565b600090565b620005ee620005df565b620005fb818484620005b4565b505050565b5b81811015620006235762000617600082620005e4565b60018101905062000601565b5050565b601f82111562000672576200063c81620004f0565b620006478462000505565b8101602085101562000657578190505b6200066f620006668562000505565b83018262000600565b50505b505050565b600082821c905092915050565b6000620006976000198460080262000677565b1980831691505092915050565b6000620006b2838362000684565b9150826002028217905092915050565b620006cd8262000452565b67ffffffffffffffff811115620006e957620006e86200045d565b5b620006f58254620004bb565b6200070282828562000627565b600060209050601f8311600181146200073a576000841562000725578287015190505b620007318582620006a4565b865550620007a1565b601f1984166200074a86620004f0565b60005b8281101562000774578489015182556001820191506020850194506020810190506200074d565b8683101562000794578489015162000790601f89168262000684565b8355505b6001600288020188555050505b505050505050565b600073ffffffffffffffffffffffffffffffffffffffff82169050919050565b6000620007d682620007a9565b9050919050565b620007e881620007c9565b82525050565b6000602082019050620008056000830184620007dd565b92915050565b7f4e487b7100000000000000000000000000000000000000000000000000000000600052601160045260246000fd5b60006200084782620003e5565b91506200085483620003e5565b92508282019050808211156200086f576200086e6200080b565b5b92915050565b6200088081620003e5565b82525050565b60006060820190506200089d6000830186620007dd565b620008ac602083018562000875565b620008bb604083018462000875565b949350505050565b6000602082019050620008da600083018462000875565b92915050565b61100880620008f06000396000f3fe608060405234801561001057600080fd5b506004361061009e5760003560e01c806340c10f191161006657806340c10f191461015d57806370a082311461017957806395d89b41146101a9578063a9059cbb146101c7578063dd62ed3e146101f75761009e565b806306fdde03146100a3578063095ea7b3146100c157806318160ddd146100f157806323b872dd1461010f578063313ce5671461013f575b600080fd5b6100ab610227565b6040516100b89190610bf0565b60405180910390f35b6100db60048036038101906100d69190610cab565b6102b9565b6040516100e89190610d06565b60405180910390f35b6100f96102dc565b6040516101069190610d30565b60405180910390f35b61012960048036038101906101249190610d4b565b6102e6565b6040516101369190610d06565b60405180910390f35b610147610315565b6040516101549190610dba565b60405180910390f35b61017760048036038101906101729190610cab565b61031e565b005b610193600480360381019061018e9190610dd5565b6103bc565b6040516101a09190610d30565b60405180910390f35b6101b1610404565b6040516101be9190610bf0565b60405180910390f35b6101e160048036038101906101dc9190610cab565b610496565b6040516101ee9190610d06565b60405180910390f35b610211600480360381019061020c9190610e02565b6104b9565b60405161021e9190610d30565b60405180910390f35b60606003805461023690610e71565b80601f016020809104026020016040519081016040528092919081815260200182805461026290610e71565b80156102af5780601f10610284576101008083540402835291602001916102af565b820191906000526020600020905b81548152906001019060200180831161029257829003601f168201915b5050505050905090565b6000806102c4610540565b90506102d1818585610548565b600191505092915050565b6000600254905090565b6000806102f1610540565b90506102fe85828561055a565b6103098585856105ee565b60019150509392505050565b60006012905090565b600560009054906101000a900473ffffffffffffffffffffffffffffffffffffffff1673ffffffffffffffffffffffffffffffffffffffff163373ffffffffffffffffffffffffffffffffffffffff16146103ae576040517f08c379a00000000000000000000000000000000000000000000000000000000081526004016103a590610eee565b60405180910390fd5b6103b882826106e2565b5050565b60008060008373ffffffffffffffffffffffffffffffffffffffff1673ffffffffffffffffffffffffffffffffffffffff168152602001908152602001600020549050919050565b60606004805461041390610e71565b80601f016020809104026020016040519081016040528092919081815260200182805461043f90610e71565b801561048c5780601f106104615761010080835404028352916020019161048c565b820191906000526020600020905b81548152906001019060200180831161046f57829003601f168201915b5050505050905090565b6000806104a1610540565b90506104ae8185856105ee565b600191505092915050565b6000600160008473ffffffffffffffffffffffffffffffffffffffff1673ffffffffffffffffffffffffffffffffffffffff16815260200190815260200160002060008373ffffffffffffffffffffffffffffffffffffffff1673ffffffffffffffffffffffffffffffffffffffff16815260200190815260200160002054905092915050565b600033905090565b6105558383836001610764565b505050565b600061056684846104b9565b90507fffffffffffffffffffffffffffffffffffffffffffffffffffffffffffffffff81146105e857818110156105d8578281836040517ffb8f41b20000000000000000000000000000000000000000000000000000000081526004016105cf93929190610f1d565b60405180910390fd5b6105e784848484036000610764565b5b50505050565b600073ffffffffffffffffffffffffffffffffffffffff168373ffffffffffffffffffffffffffffffffffffffff16036106605760006040517f96c6fd1e0000000000000000000000000000000000000000000000000000000081526004016106579190610f54565b60405180910390fd5b600073ffffffffffffffffffffffffffffffffffffffff168273ffffffffffffffffffffffffffffffffffffffff16036106d25760006040517fec442f050000000000000000000000000000000000000000000000000000000081526004016106c99190610f54565b60405180910390fd5b6106dd83838361093b565b505050565b600073ffffffffffffffffffffffffffffffffffffffff168273ffffffffffffffffffffffffffffffffffffffff16036107545760006040517fec442f0500000000000000000000000000000000000000000000000000000000815260040161074b9190610f54565b60405180910390fd5b6107606000838361093b565b5050565b600073ffffffffffffffffffffffffffffffffffffffff168473ffffffffffffffffffffffffffffffffffffffff16036107d65760006040517fe602df050000000000000000000000000000000000000000000000000000000081526004016107cd9190610f54565b60405180910390fd5b600073ffffffffffffffffffffffffffffffffffffffff168373ffffffffffffffffffffffffffffffffffffffff16036108485760006040517f94280d6200000000000000000000000000000000000000000000000000000000815260040161083f9190610f54565b60405180910390fd5b81600160008673ffffffffffffffffffffffffffffffffffffffff1673ffffffffffffffffffffffffffffffffffffffff16815260200190815260200160002060008573ffffffffffffffffffffffffffffffffffffffff1673ffffffffffffffffffffffffffffffffffffffff168152602001908152602001600020819055508015610935578273ffffffffffffffffffffffffffffffffffffffff168473ffffffffffffffffffffffffffffffffffffffff167f8c5be1e5ebec7d5bd14f71427d1e84f3dd0314c0f7b2291e5b200ac8c7c3b9258460405161092c9190610d30565b60405180910390a35b50505050565b600073ffffffffffffffffffffffffffffffffffffffff168373ffffffffffffffffffffffffffffffffffffffff160361098d5780600260008282546109819190610f9e565b92505081905550610a60565b60008060008573ffffffffffffffffffffffffffffffffffffffff1673ffffffffffffffffffffffffffffffffffffffff16815260200190815260200160002054905081811015610a19578381836040517fe450d38c000000000000000000000000000000000000000000000000000000008152600401610a1093929190610f1d565b60405180910390fd5b8181036000808673ffffffffffffffffffffffffffffffffffffffff1673ffffffffffffffffffffffffffffffffffffffff16815260200190815260200160002081905550505b600073ffffffffffffffffffffffffffffffffffffffff168273ffffffffffffffffffffffffffffffffffffffff1603610aa95780600260008282540392505081905550610af6565b806000808473ffffffffffffffffffffffffffffffffffffffff1673ffffffffffffffffffffffffffffffffffffffff168152602001908152602001600020600082825401925050819055505b8173ffffffffffffffffffffffffffffffffffffffff168373ffffffffffffffffffffffffffffffffffffffff167fddf252ad1be2c89b69c2b068fc378daa952ba7f163c4a11628f55a4df523b3ef83604051610b539190610d30565b60405180910390a3505050565b600081519050919050565b600082825260208201905092915050565b60005b83811015610b9a578082015181840152602081019050610b7f565b60008484015250505050565b6000601f19601f8301169050919050565b6000610bc282610b60565b610bcc8185610b6b565b9350610bdc818560208601610b7c565b610be581610ba6565b840191505092915050565b60006020820190508181036000830152610c0a8184610bb7565b905092915050565b600080fd5b600073ffffffffffffffffffffffffffffffffffffffff82169050919050565b6000610c4282610c17565b9050919050565b610c5281610c37565b8114610c5d57600080fd5b50565b600081359050610c6f81610c49565b92915050565b6000819050919050565b610c8881610c75565b8114610c9357600080fd5b50565b600081359050610ca581610c7f565b92915050565b60008060408385031215610cc257610cc1610c12565b5b6000610cd085828601610c60565b9250506020610ce185828601610c96565b9150509250929050565b60008115159050919050565b610d0081610ceb565b82525050565b6000602082019050610d1b6000830184610cf7565b92915050565b610d2a81610c75565b82525050565b6000602082019050610d456000830184610d21565b92915050565b600080600060608486031215610d6457610d63610c12565b5b6000610d7286828701610c60565b9350506020610d8386828701610c60565b9250506040610d9486828701610c96565b9150509250925092565b600060ff82169050919050565b610db481610d9e565b82525050565b6000602082019050610dcf6000830184610dab565b92915050565b600060208284031215610deb57610dea610c12565b5b6000610df984828501610c60565b91505092915050565b60008060408385031215610e1957610e18610c12565b5b6000610e2785828601610c60565b9250506020610e3885828601610c60565b9150509250929050565b7f4e487b7100000000000000000000000000000000000000000000000000000000600052602260045260246000fd5b60006002820490506001821680610e8957607f821691505b602082108103610e9c57610e9b610e42565b5b50919050565b7f4163636573732064656e69656400000000000000000000000000000000000000600082015250565b6000610ed8600d83610b6b565b9150610ee382610ea2565b602082019050919050565b60006020820190508181036000830152610f0781610ecb565b9050919050565b610f1781610c37565b82525050565b6000606082019050610f326000830186610f0e565b610f3f6020830185610d21565b610f4c6040830184610d21565b949350505050565b6000602082019050610f696000830184610f0e565b92915050565b7f4e487b7100000000000000000000000000000000000000000000000000000000600052601160045260246000fd5b6000610fa982610c75565b9150610fb483610c75565b9250828201905080821115610fcc57610fcb610f6f565b5b9291505056fea26469706673582212200afc14ae9fb1bd38f2fcc23c79cebf41ef0012a6e092c1ce4db3f280dc2c845664736f6c63430008180033",
  "linkReferences": {},
  "deployedLinkReferences": {}
}