{
  "contracts/AirdropClaim.sol": {
    "AirdropClaimContract": {
      "abi": [
        {
          "inputs": [
            {
              "internalType": "address",
              "name": "_erc20TokenAddress",
              "type": "address"
            },
            {
              "internalType": "bytes32",
              "name": "_merkleRoot",
              "type": "bytes32"
            }
          ],
          "stateMutability": "nonpayable",
          "type": "constructor"
        },
        {
          "inputs": [],
          "name": "ReentrancyGuardReentrantCall",
          "type": "error"
        },
        {
          "anonymous": false,
          "inputs": [
            {
              "indexed": true,
              "internalType": "address",
              "name": "to",
              "type": "address"
            },
            {
              "indexed": false,
              "internalType": "uint256",
              "name": "amount",
              "type": "uint256"
            }
          ],
          "name": "AirdropClaimed",
          "type": "event"
        },
        {
          "anonymous": false,
          "inputs": [
            {
              "indexed": false,
              "internalType": "bytes32",
              "name": "merkleRoot",
              "type": "bytes32"
            }
          ],
          "name": "MerkleRootHashUpdated",
          "type": "event"
        },
        {
          "inputs": [
            {
              "internalType": "bytes32[]",
              "name": "_merkleProofs",
              "type": "bytes32[]"
            },
            {
              "internalType": "uint256",
              "name": "_amount",
              "type": "uint256"
            }
          ],
          "name": "ClaimAirdrop",
          "outputs": [],
          "stateMutability": "nonpayable",
          "type": "function"
        },
        {
          "inputs": [
            {
              "internalType": "bytes32",
              "name": "_merkleRoot",
              "type": "bytes32"
            }
          ],
          "name": "UpdateMerkleRoot",
          "outputs": [],
          "stateMutability": "nonpayable",
          "type": "function"
        },
        {
          "inputs": [],
          "name": "erc20TokenAddress",
          "outputs": [
            {
              "internalType": "address",
              "name": "",
              "type": "address"
            }
          ],
          "stateMutability": "view",
          "type": "function"
        }
      ],
      "evm": {
        "bytecode": {
          "linkReferences": {},
          "object": "60806040523480156200001157600080fd5b5060405162000eb238038062000eb2833981810160405281019062000037919062000175565b600160008190555033600360006101000a81548173ffffffffffffffffffffffffffffffffffffffff021916908373ffffffffffffffffffffffffffffffffffffffff16021790555081600160006101000a81548173ffffffffffffffffffffffffffffffffffffffff021916908373ffffffffffffffffffffffffffffffffffffffff160217905550806002819055505050620001bc565b600080fd5b600073ffffffffffffffffffffffffffffffffffffffff82169050919050565b60006200010282620000d5565b9050919050565b6200011481620000f5565b81146200012057600080fd5b50565b600081519050620001348162000109565b92915050565b6000819050919050565b6200014f816200013a565b81146200015b57600080fd5b50565b6000815190506200016f8162000144565b92915050565b600080604083850312156200018f576200018e620000d0565b5b60006200019f8582860162000123565b9250506020620001b2858286016200015e565b9150509250929050565b610ce680620001cc6000396000f3fe608060405234801561001057600080fd5b50600436106100415760003560e01c8063ae8bdbc114610046578063f835cd3c14610062578063fa27eeb514610080575b600080fd5b610060600480360381019061005b9190610627565b61009c565b005b61006a61016d565b6040516100779190610695565b60405180910390f35b61009a6004803603810190610095919061083f565b610193565b005b600360009054906101000a900473ffffffffffffffffffffffffffffffffffffffff1673ffffffffffffffffffffffffffffffffffffffff163373ffffffffffffffffffffffffffffffffffffffff161461012c576040517f08c379a0000000000000000000000000000000000000000000000000000000008152600401610123906108f8565b60405180910390fd5b806002819055507f15044df2357bec30fae0d99dbe2ef3e333b693f18ea604eaf66c5302f50cc704816040516101629190610927565b60405180910390a150565b600160009054906101000a900473ffffffffffffffffffffffffffffffffffffffff1681565b61019b6104e4565b60003390506000600160009054906101000a900473ffffffffffffffffffffffffffffffffffffffff1690506000600460008473ffffffffffffffffffffffffffffffffffffffff1673ffffffffffffffffffffffffffffffffffffffff1681526020019081526020016000209050600015158160000160009054906101000a900460ff16151514610262576040517f08c379a00000000000000000000000000000000000000000000000000000000081526004016102599061098e565b60405180910390fd5b60008385604051602001610277929190610a17565b60405160208183030381529060405280519060200120905061029c866002548361052a565b6102db576040517f08c379a00000000000000000000000000000000000000000000000000000000081526004016102d290610a8f565b60405180910390fd5b60008373ffffffffffffffffffffffffffffffffffffffff166370a08231306040518263ffffffff1660e01b81526004016103169190610695565b602060405180830381865afa158015610333573d6000803e3d6000fd5b505050506040513d601f19601f820116820180604052508101906103579190610ac4565b90508581101561039c576040517f08c379a000000000000000000000000000000000000000000000000000000000815260040161039390610b3d565b60405180910390fd5b60018360000160006101000a81548160ff02191690831515021790555042836001018190555060008473ffffffffffffffffffffffffffffffffffffffff1663a9059cbb87896040518363ffffffff1660e01b81526004016103ff929190610b6c565b6020604051808303816000875af115801561041e573d6000803e3d6000fd5b505050506040513d601f19601f820116820180604052508101906104429190610bcd565b905080610484576040517f08c379a000000000000000000000000000000000000000000000000000000000815260040161047b90610c46565b60405180910390fd5b8573ffffffffffffffffffffffffffffffffffffffff167f650e45f04ef8a0c267b2f78d983913f69ae3a353b2b32de5429307522be0ab55886040516104ca9190610c66565b60405180910390a25050505050506104e0610541565b5050565b600260005403610520576040517f3ee5aeb500000000000000000000000000000000000000000000000000000000815260040160405180910390fd5b6002600081905550565b600082610537858461054b565b1490509392505050565b6001600081905550565b60008082905060005b8451811015610590576105818286838151811061057457610573610c81565b5b602002602001015161059b565b91508080600101915050610554565b508091505092915050565b60008183106105b3576105ae82846105c6565b6105be565b6105bd83836105c6565b5b905092915050565b600082600052816020526040600020905092915050565b6000604051905090565b600080fd5b600080fd5b6000819050919050565b610604816105f1565b811461060f57600080fd5b50565b600081359050610621816105fb565b92915050565b60006020828403121561063d5761063c6105e7565b5b600061064b84828501610612565b91505092915050565b600073ffffffffffffffffffffffffffffffffffffffff82169050919050565b600061067f82610654565b9050919050565b61068f81610674565b82525050565b60006020820190506106aa6000830184610686565b92915050565b600080fd5b6000601f19601f8301169050919050565b7f4e487b7100000000000000000000000000000000000000000000000000000000600052604160045260246000fd5b6106fe826106b5565b810181811067ffffffffffffffff8211171561071d5761071c6106c6565b5b80604052505050565b60006107306105dd565b905061073c82826106f5565b919050565b600067ffffffffffffffff82111561075c5761075b6106c6565b5b602082029050602081019050919050565b600080fd5b600061078561078084610741565b610726565b905080838252602082019050602084028301858111156107a8576107a761076d565b5b835b818110156107d157806107bd8882610612565b8452602084019350506020810190506107aa565b5050509392505050565b600082601f8301126107f0576107ef6106b0565b5b8135610800848260208601610772565b91505092915050565b6000819050919050565b61081c81610809565b811461082757600080fd5b50565b60008135905061083981610813565b92915050565b60008060408385031215610856576108556105e7565b5b600083013567ffffffffffffffff811115610874576108736105ec565b5b610880858286016107db565b92505060206108918582860161082a565b9150509250929050565b600082825260208201905092915050565b7f4163636573732064656e69656400000000000000000000000000000000000000600082015250565b60006108e2600d8361089b565b91506108ed826108ac565b602082019050919050565b60006020820190508181036000830152610911816108d5565b9050919050565b610921816105f1565b82525050565b600060208201905061093c6000830184610918565b92915050565b7f41697264726f7020616c726561647920636c61696d6564000000000000000000600082015250565b600061097860178361089b565b915061098382610942565b602082019050919050565b600060208201905081810360008301526109a78161096b565b9050919050565b60008160601b9050919050565b60006109c6826109ae565b9050919050565b60006109d8826109bb565b9050919050565b6109f06109eb82610674565b6109cd565b82525050565b6000819050919050565b610a11610a0c82610809565b6109f6565b82525050565b6000610a2382856109df565b601482019150610a338284610a00565b6020820191508190509392505050565b7f496e76616c69642070726f6f6673000000000000000000000000000000000000600082015250565b6000610a79600e8361089b565b9150610a8482610a43565b602082019050919050565b60006020820190508181036000830152610aa881610a6c565b9050919050565b600081519050610abe81610813565b92915050565b600060208284031215610ada57610ad96105e7565b5b6000610ae884828501610aaf565b91505092915050565b7f706c656173652074727920616761696e206c6174657200000000000000000000600082015250565b6000610b2760168361089b565b9150610b3282610af1565b602082019050919050565b60006020820190508181036000830152610b5681610b1a565b9050919050565b610b6681610809565b82525050565b6000604082019050610b816000830185610686565b610b8e6020830184610b5d565b9392505050565b60008115159050919050565b610baa81610b95565b8114610bb557600080fd5b50565b600081519050610bc781610ba1565b92915050565b600060208284031215610be357610be26105e7565b5b6000610bf184828501610bb8565b91505092915050565b7f41697264726f7020636c61696d207472616e73666572206661696c6564000000600082015250565b6000610c30601d8361089b565b9150610c3b82610bfa565b602082019050919050565b60006020820190508181036000830152610c5f81610c23565b9050919050565b6000602082019050610c7b6000830184610b5d565b92915050565b7f4e487b7100000000000000000000000000000000000000000000000000000000600052603260045260246000fdfea26469706673582212200aac729eaee360a89ffa75ed894ca4eb0593161eb9c1779c0159e601db11676e64736f6c63430008180033",
          "opcodes": "PUSH1 0x80 PUSH1 0x40 MSTORE CALLVALUE DUP1 ISZERO PUSH3 0x11 JUMPI PUSH1 0x0 DUP1 REVERT JUMPDEST POP PUSH1 0x40 MLOAD PUSH3 0xEB2 CODESIZE SUB DUP1 PUSH3 0xEB2 DUP4 CODECOPY DUP2 DUP2 ADD PUSH1 0x40 MSTORE DUP2 ADD SWAP1 PUSH3 0x37 SWAP2 SWAP1 PUSH3 0x175 JUMP JUMPDEST PUSH1 0x1 PUSH1 0x0 DUP2 SWAP1 SSTORE POP CALLER PUSH1 0x3 PUSH1 0x0 PUSH2 0x100 EXP DUP2 SLOAD DUP2 PUSH20 0xFFFFFFFFFFFFFFFFFFFFFFFFFFFFFFFFFFFFFFFF MUL NOT AND SWAP1 DUP4 PUSH20 0xFFFFFFFFFFFFFFFFFFFFFFFFFFFFFFFFFFFFFFFF AND MUL OR SWAP1 SSTORE POP DUP2 PUSH1 0x1 PUSH1 0x0 PUSH2 0x100 EXP DUP2 SLOAD DUP2 PUSH20 0xFFFFFFFFFFFFFFFFFFFFFFFFFFFFFFFFFFFFFFFF MUL NOT AND SWAP1 DUP4 PUSH20 0xFFFFFFFFFFFFFFFFFFFFFFFFFFFFFFFFFFFFFFFF AND MUL OR SWAP1 SSTORE POP DUP1 PUSH1 0x2 DUP2 SWAP1 SSTORE POP POP POP PUSH3 0x1BC JUMP JUMPDEST PUSH1 0x0 DUP1 REVERT JUMPDEST PUSH1 0x0 PUSH20 0xFFFFFFFFFFFFFFFFFFFFFFFFFFFFFFFFFFFFFFFF DUP3 AND SWAP1 POP SWAP2 SWAP1 POP JUMP JUMPDEST PUSH1 0x0 PUSH3 0x102 DUP3 PUSH3 0xD5 JUMP JUMPDEST SWAP1 POP SWAP2 SWAP1 POP JUMP JUMPDEST PUSH3 0x114 DUP2 PUSH3 0xF5 JUMP JUMPDEST DUP2 EQ PUSH3 0x120 JUMPI PUSH1 0x0 DUP1 REVERT JUMPDEST POP JUMP JUMPDEST PUSH1 0x0 DUP2 MLOAD SWAP1 POP PUSH3 0x134 DUP2 PUSH3 0x109 JUMP JUMPDEST SWAP3 SWAP2 POP POP JUMP JUMPDEST PUSH1 0x0 DUP2 SWAP1 POP SWAP2 SWAP1 POP JUMP JUMPDEST PUSH3 0x14F DUP2 PUSH3 0x13A JUMP JUMPDEST DUP2 EQ PUSH3 0x15B JUMPI PUSH1 0x0 DUP1 REVERT JUMPDEST POP JUMP JUMPDEST PUSH1 0x0 DUP2 MLOAD SWAP1 POP PUSH3 0x16F DUP2 PUSH3 0x144 JUMP JUMPDEST SWAP3 SWAP2 POP POP JUMP JUMPDEST PUSH1 0x0 DUP1 PUSH1 0x40 DUP4 DUP6 SUB SLT ISZERO PUSH3 0x18F JUMPI PUSH3 0x18E PUSH3 0xD0 JUMP JUMPDEST JUMPDEST PUSH1 0x0 PUSH3 0x19F DUP6 DUP3 DUP7 ADD PUSH3 0x123 JUMP JUMPDEST SWAP3 POP POP PUSH1 0x20 PUSH3 0x1B2 DUP6 DUP3 DUP7 ADD PUSH3 0x15E JUMP JUMPDEST SWAP2 POP POP SWAP3 POP SWAP3 SWAP1 POP JUMP JUMPDEST PUSH2 0xCE6 DUP1 PUSH3 0x1CC PUSH1 0x0 CODECOPY PUSH1 0x0 RETURN INVALID PUSH1 0x80 PUSH1 0x40 MSTORE CALLVALUE DUP1 ISZERO PUSH2 0x10 JUMPI PUSH1 0x0 DUP1 REVERT JUMPDEST POP PUSH1 0x4 CALLDATASIZE LT PUSH2 0x41 JUMPI PUSH1 0x0 CALLDATALOAD PUSH1 0xE0 SHR DUP1 PUSH4 0xAE8BDBC1 EQ PUSH2 0x46 JUMPI DUP1 PUSH4 0xF835CD3C EQ PUSH2 0x62 JUMPI DUP1 PUSH4 0xFA27EEB5 EQ PUSH2 0x80 JUMPI JUMPDEST PUSH1 0x0 DUP1 REVERT JUMPDEST PUSH2 0x60 PUSH1 0x4 DUP1 CALLDATASIZE SUB DUP2 ADD SWAP1 PUSH2 0x5B SWAP2 SWAP1 PUSH2 0x627 JUMP JUMPDEST PUSH2 0x9C JUMP JUMPDEST STOP JUMPDEST PUSH2 0x6A PUSH2 0x16D JUMP JUMPDEST PUSH1 0x40 MLOAD PUSH2 0x77 SWAP2 SWAP1 PUSH2 0x695 JUMP JUMPDEST PUSH1 0x40 MLOAD DUP1 SWAP2 SUB SWAP1 RETURN JUMPDEST PUSH2 0x9A PUSH1 0x4 DUP1 CALLDATASIZE SUB DUP2 ADD SWAP1 PUSH2 0x95 SWAP2 SWAP1 PUSH2 0x83F JUMP JUMPDEST PUSH2 0x193 JUMP JUMPDEST STOP JUMPDEST PUSH1 0x3 PUSH1 0x0 SWAP1 SLOAD SWAP1 PUSH2 0x100 EXP SWAP1 DIV PUSH20 0xFFFFFFFFFFFFFFFFFFFFFFFFFFFFFFFFFFFFFFFF AND PUSH20 0xFFFFFFFFFFFFFFFFFFFFFFFFFFFFFFFFFFFFFFFF AND CALLER PUSH20 0xFFFFFFFFFFFFFFFFFFFFFFFFFFFFFFFFFFFFFFFF AND EQ PUSH2 0x12C JUMPI PUSH1 0x40 MLOAD PUSH32 0x8C379A000000000000000000000000000000000000000000000000000000000 DUP2 MSTORE PUSH1 0x4 ADD PUSH2 0x123 SWAP1 PUSH2 0x8F8 JUMP JUMPDEST PUSH1 0x40 MLOAD DUP1 SWAP2 SUB SWAP1 REVERT JUMPDEST DUP1 PUSH1 0x2 DUP2 SWAP1 SSTORE POP PUSH32 0x15044DF2357BEC30FAE0D99DBE2EF3E333B693F18EA604EAF66C5302F50CC704 DUP2 PUSH1 0x40 MLOAD PUSH2 0x162 SWAP2 SWAP1 PUSH2 0x927 JUMP JUMPDEST PUSH1 0x40 MLOAD DUP1 SWAP2 SUB SWAP1 LOG1 POP JUMP JUMPDEST PUSH1 0x1 PUSH1 0x0 SWAP1 SLOAD SWAP1 PUSH2 0x100 EXP SWAP1 DIV PUSH20 0xFFFFFFFFFFFFFFFFFFFFFFFFFFFFFFFFFFFFFFFF AND DUP2 JUMP JUMPDEST PUSH2 0x19B PUSH2 0x4E4 JUMP JUMPDEST PUSH1 0x0 CALLER SWAP1 POP PUSH1 0x0 PUSH1 0x1 PUSH1 0x0 SWAP1 SLOAD SWAP1 PUSH2 0x100 EXP SWAP1 DIV PUSH20 0xFFFFFFFFFFFFFFFFFFFFFFFFFFFFFFFFFFFFFFFF AND SWAP1 POP PUSH1 0x0 PUSH1 0x4 PUSH1 0x0 DUP5 PUSH20 0xFFFFFFFFFFFFFFFFFFFFFFFFFFFFFFFFFFFFFFFF AND PUSH20 0xFFFFFFFFFFFFFFFFFFFFFFFFFFFFFFFFFFFFFFFF AND DUP2 MSTORE PUSH1 0x20 ADD SWAP1 DUP2 MSTORE PUSH1 0x20 ADD PUSH1 0x0 KECCAK256 SWAP1 POP PUSH1 0x0 ISZERO ISZERO DUP2 PUSH1 0x0 ADD PUSH1 0x0 SWAP1 SLOAD SWAP1 PUSH2 0x100 EXP SWAP1 DIV PUSH1 0xFF AND ISZERO ISZERO EQ PUSH2 0x262 JUMPI PUSH1 0x40 MLOAD PUSH32 0x8C379A000000000000000000000000000000000000000000000000000000000 DUP2 MSTORE PUSH1 0x4 ADD PUSH2 0x259 SWAP1 PUSH2 0x98E JUMP JUMPDEST PUSH1 0x40 MLOAD DUP1 SWAP2 SUB SWAP1 REVERT JUMPDEST PUSH1 0x0 DUP4 DUP6 PUSH1 0x40 MLOAD PUSH1 0x20 ADD PUSH2 0x277 SWAP3 SWAP2 SWAP1 PUSH2 0xA17 JUMP JUMPDEST PUSH1 0x40 MLOAD PUSH1 0x20 DUP2 DUP4 SUB SUB DUP2 MSTORE SWAP1 PUSH1 0x40 MSTORE DUP1 MLOAD SWAP1 PUSH1 0x20 ADD KECCAK256 SWAP1 POP PUSH2 0x29C DUP7 PUSH1 0x2 SLOAD DUP4 PUSH2 0x52A JUMP JUMPDEST PUSH2 0x2DB JUMPI PUSH1 0x40 MLOAD PUSH32 0x8C379A000000000000000000000000000000000000000000000000000000000 DUP2 MSTORE PUSH1 0x4 ADD PUSH2 0x2D2 SWAP1 PUSH2 0xA8F JUMP JUMPDEST PUSH1 0x40 MLOAD DUP1 SWAP2 SUB SWAP1 REVERT JUMPDEST PUSH1 0x0 DUP4 PUSH20 0xFFFFFFFFFFFFFFFFFFFFFFFFFFFFFFFFFFFFFFFF AND PUSH4 0x70A08231 ADDRESS PUSH1 0x40 MLOAD DUP3 PUSH4 0xFFFFFFFF AND PUSH1 0xE0 SHL DUP2 MSTORE PUSH1 0x4 ADD PUSH2 0x316 SWAP2 SWAP1 PUSH2 0x695 JUMP JUMPDEST PUSH1 0x20 PUSH1 0x40 MLOAD DUP1 DUP4 SUB DUP2 DUP7 GAS STATICCALL ISZERO DUP1 ISZERO PUSH2 0x333 JUMPI RETURNDATASIZE PUSH1 0x0 DUP1 RETURNDATACOPY RETURNDATASIZE PUSH1 0x0 REVERT JUMPDEST POP POP POP POP PUSH1 0x40 MLOAD RETURNDATASIZE PUSH1 0x1F NOT PUSH1 0x1F DUP3 ADD AND DUP3 ADD DUP1 PUSH1 0x40 MSTORE POP DUP2 ADD SWAP1 PUSH2 0x357 SWAP2 SWAP1 PUSH2 0xAC4 JUMP JUMPDEST SWAP1 POP DUP6 DUP2 LT ISZERO PUSH2 0x39C JUMPI PUSH1 0x40 MLOAD PUSH32 0x8C379A000000000000000000000000000000000000000000000000000000000 DUP2 MSTORE PUSH1 0x4 ADD PUSH2 0x393 SWAP1 PUSH2 0xB3D JUMP JUMPDEST PUSH1 0x40 MLOAD DUP1 SWAP2 SUB SWAP1 REVERT JUMPDEST PUSH1 0x1 DUP4 PUSH1 0x0 ADD PUSH1 0x0 PUSH2 0x100 EXP DUP2 SLOAD DUP2 PUSH1 0xFF MUL NOT AND SWAP1 DUP4 ISZERO ISZERO MUL OR SWAP1 SSTORE POP TIMESTAMP DUP4 PUSH1 0x1 ADD DUP2 SWAP1 SSTORE POP PUSH1 0x0 DUP5 PUSH20 0xFFFFFFFFFFFFFFFFFFFFFFFFFFFFFFFFFFFFFFFF AND PUSH4 0xA9059CBB DUP8 DUP10 PUSH1 0x40 MLOAD DUP4 PUSH4 0xFFFFFFFF AND PUSH1 0xE0 SHL DUP2 MSTORE PUSH1 0x4 ADD PUSH2 0x3FF SWAP3 SWAP2 SWAP1 PUSH2 0xB6C JUMP JUMPDEST PUSH1 0x20 PUSH1 0x40 MLOAD DUP1 DUP4 SUB DUP2 PUSH1 0x0 DUP8 GAS CALL ISZERO DUP1 ISZERO PUSH2 0x41E JUMPI RETURNDATASIZE PUSH1 0x0 DUP1 RETURNDATACOPY RETURNDATASIZE PUSH1 0x0 REVERT JUMPDEST POP POP POP POP PUSH1 0x40 MLOAD RETURNDATASIZE PUSH1 0x1F NOT PUSH1 0x1F DUP3 ADD AND DUP3 ADD DUP1 PUSH1 0x40 MSTORE POP DUP2 ADD SWAP1 PUSH2 0x442 SWAP2 SWAP1 PUSH2 0xBCD JUMP JUMPDEST SWAP1 POP DUP1 PUSH2 0x484 JUMPI PUSH1 0x40 MLOAD PUSH32 0x8C379A000000000000000000000000000000000000000000000000000000000 DUP2 MSTORE PUSH1 0x4 ADD PUSH2 0x47B SWAP1 PUSH2 0xC46 JUMP JUMPDEST PUSH1 0x40 MLOAD DUP1 SWAP2 SUB SWAP1 REVERT JUMPDEST DUP6 PUSH20 0xFFFFFFFFFFFFFFFFFFFFFFFFFFFFFFFFFFFFFFFF AND PUSH32 0x650E45F04EF8A0C267B2F78D983913F69AE3A353B2B32DE5429307522BE0AB55 DUP9 PUSH1 0x40 MLOAD PUSH2 0x4CA SWAP2 SWAP1 PUSH2 0xC66 JUMP JUMPDEST PUSH1 0x40 MLOAD DUP1 SWAP2 SUB SWAP1 LOG2 POP POP POP POP POP POP PUSH2 0x4E0 PUSH2 0x541 JUMP JUMPDEST POP POP JUMP JUMPDEST PUSH1 0x2 PUSH1 0x0 SLOAD SUB PUSH2 0x520 JUMPI PUSH1 0x40 MLOAD PUSH32 0x3EE5AEB500000000000000000000000000000000000000000000000000000000 DUP2 MSTORE PUSH1 0x4 ADD PUSH1 0x40 MLOAD DUP1 SWAP2 SUB SWAP1 REVERT JUMPDEST PUSH1 0x2 PUSH1 0x0 DUP2 SWAP1 SSTORE POP JUMP JUMPDEST PUSH1 0x0 DUP3 PUSH2 0x537 DUP6 DUP5 PUSH2 0x54B JUMP JUMPDEST EQ SWAP1 POP SWAP4 SWAP3 POP POP POP JUMP JUMPDEST PUSH1 0x1 PUSH1 0x0 DUP2 SWAP1 SSTORE POP JUMP JUMPDEST PUSH1 0x0 DUP1 DUP3 SWAP1 POP PUSH1 0x0 JUMPDEST DUP5 MLOAD DUP2 LT ISZERO PUSH2 0x590 JUMPI PUSH2 0x581 DUP3 DUP7 DUP4 DUP2 MLOAD DUP2 LT PUSH2 0x574 JUMPI PUSH2 0x573 PUSH2 0xC81 JUMP JUMPDEST JUMPDEST PUSH1 0x20 MUL PUSH1 0x20 ADD ADD MLOAD PUSH2 0x59B JUMP JUMPDEST SWAP2 POP DUP1 DUP1 PUSH1 0x1 ADD SWAP2 POP POP PUSH2 0x554 JUMP JUMPDEST POP DUP1 SWAP2 POP POP SWAP3 SWAP2 POP POP JUMP JUMPDEST PUSH1 0x0 DUP2 DUP4 LT PUSH2 0x5B3 JUMPI PUSH2 0x5AE DUP3 DUP5 PUSH2 0x5C6 JUMP JUMPDEST PUSH2 0x5BE JUMP JUMPDEST PUSH2 0x5BD DUP4 DUP4 PUSH2 0x5C6 JUMP JUMPDEST JUMPDEST SWAP1 POP SWAP3 SWAP2 POP POP JUMP JUMPDEST PUSH1 0x0 DUP3 PUSH1 0x0 MSTORE DUP2 PUSH1 0x20 MSTORE PUSH1 0x40 PUSH1 0x0 KECCAK256 SWAP1 POP SWAP3 SWAP2 POP POP JUMP JUMPDEST PUSH1 0x0 PUSH1 0x40 MLOAD SWAP1 POP SWAP1 JUMP JUMPDEST PUSH1 0x0 DUP1 REVERT JUMPDEST PUSH1 0x0 DUP1 REVERT JUMPDEST PUSH1 0x0 DUP2 SWAP1 POP SWAP2 SWAP1 POP JUMP JUMPDEST PUSH2 0x604 DUP2 PUSH2 0x5F1 JUMP JUMPDEST DUP2 EQ PUSH2 0x60F JUMPI PUSH1 0x0 DUP1 REVERT JUMPDEST POP JUMP JUMPDEST PUSH1 0x0 DUP2 CALLDATALOAD SWAP1 POP PUSH2 0x621 DUP2 PUSH2 0x5FB JUMP JUMPDEST SWAP3 SWAP2 POP POP JUMP JUMPDEST PUSH1 0x0 PUSH1 0x20 DUP3 DUP5 SUB SLT ISZERO PUSH2 0x63D JUMPI PUSH2 0x63C PUSH2 0x5E7 JUMP JUMPDEST JUMPDEST PUSH1 0x0 PUSH2 0x64B DUP5 DUP3 DUP6 ADD PUSH2 0x612 JUMP JUMPDEST SWAP2 POP POP SWAP3 SWAP2 POP POP JUMP JUMPDEST PUSH1 0x0 PUSH20 0xFFFFFFFFFFFFFFFFFFFFFFFFFFFFFFFFFFFFFFFF DUP3 AND SWAP1 POP SWAP2 SWAP1 POP JUMP JUMPDEST PUSH1 0x0 PUSH2 0x67F DUP3 PUSH2 0x654 JUMP JUMPDEST SWAP1 POP SWAP2 SWAP1 POP JUMP JUMPDEST PUSH2 0x68F DUP2 PUSH2 0x674 JUMP JUMPDEST DUP3 MSTORE POP POP JUMP JUMPDEST PUSH1 0x0 PUSH1 0x20 DUP3 ADD SWAP1 POP PUSH2 0x6AA PUSH1 0x0 DUP4 ADD DUP5 PUSH2 0x686 JUMP JUMPDEST SWAP3 SWAP2 POP POP JUMP JUMPDEST PUSH1 0x0 DUP1 REVERT JUMPDEST PUSH1 0x0 PUSH1 0x1F NOT PUSH1 0x1F DUP4 ADD AND SWAP1 POP SWAP2 SWAP1 POP JUMP JUMPDEST PUSH32 0x4E487B7100000000000000000000000000000000000000000000000000000000 PUSH1 0x0 MSTORE PUSH1 0x41 PUSH1 0x4 MSTORE PUSH1 0x24 PUSH1 0x0 REVERT JUMPDEST PUSH2 0x6FE DUP3 PUSH2 0x6B5 JUMP JUMPDEST DUP2 ADD DUP2 DUP2 LT PUSH8 0xFFFFFFFFFFFFFFFF DUP3 GT OR ISZERO PUSH2 0x71D JUMPI PUSH2 0x71C PUSH2 0x6C6 JUMP JUMPDEST JUMPDEST DUP1 PUSH1 0x40 MSTORE POP POP POP JUMP JUMPDEST PUSH1 0x0 PUSH2 0x730 PUSH2 0x5DD JUMP JUMPDEST SWAP1 POP PUSH2 0x73C DUP3 DUP3 PUSH2 0x6F5 JUMP JUMPDEST SWAP2 SWAP1 POP JUMP JUMPDEST PUSH1 0x0 PUSH8 0xFFFFFFFFFFFFFFFF DUP3 GT ISZERO PUSH2 0x75C JUMPI PUSH2 0x75B PUSH2 0x6C6 JUMP JUMPDEST JUMPDEST PUSH1 0x20 DUP3 MUL SWAP1 POP PUSH1 0x20 DUP2 ADD SWAP1 POP SWAP2 SWAP1 POP JUMP JUMPDEST PUSH1 0x0 DUP1 REVERT JUMPDEST PUSH1 0x0 PUSH2 0x785 PUSH2 0x780 DUP5 PUSH2 0x741 JUMP JUMPDEST PUSH2 0x726 JUMP JUMPDEST SWAP1 POP DUP1 DUP4 DUP3 MSTORE PUSH1 0x20 DUP3 ADD SWAP1 POP PUSH1 0x20 DUP5 MUL DUP4 ADD DUP6 DUP2 GT ISZERO PUSH2 0x7A8 JUMPI PUSH2 0x7A7 PUSH2 0x76D JUMP JUMPDEST JUMPDEST DUP4 JUMPDEST DUP2 DUP2 LT ISZERO PUSH2 0x7D1 JUMPI DUP1 PUSH2 0x7BD DUP9 DUP3 PUSH2 0x612 JUMP JUMPDEST DUP5 MSTORE PUSH1 0x20 DUP5 ADD SWAP4 POP POP PUSH1 0x20 DUP2 ADD SWAP1 POP PUSH2 0x7AA JUMP JUMPDEST POP POP POP SWAP4 SWAP3 POP POP POP JUMP JUMPDEST PUSH1 0x0 DUP3 PUSH1 0x1F DUP4 ADD SLT PUSH2 0x7F0 JUMPI PUSH2 0x7EF PUSH2 0x6B0 JUMP JUMPDEST JUMPDEST DUP2 CALLDATALOAD PUSH2 0x800 DUP5 DUP3 PUSH1 0x20 DUP7 ADD PUSH2 0x772 JUMP JUMPDEST SWAP2 POP POP SWAP3 SWAP2 POP POP JUMP JUMPDEST PUSH1 0x0 DUP2 SWAP1 POP SWAP2 SWAP1 POP JUMP JUMPDEST PUSH2 0x81C DUP2 PUSH2 0x809 JUMP JUMPDEST DUP2 EQ PUSH2 0x827 JUMPI PUSH1 0x0 DUP1 REVERT JUMPDEST POP JUMP JUMPDEST PUSH1 0x0 DUP2 CALLDATALOAD SWAP1 POP PUSH2 0x839 DUP2 PUSH2 0x813 JUMP JUMPDEST SWAP3 SWAP2 POP POP JUMP JUMPDEST PUSH1 0x0 DUP1 PUSH1 0x40 DUP4 DUP6 SUB SLT ISZERO PUSH2 0x856 JUMPI PUSH2 0x855 PUSH2 0x5E7 JUMP JUMPDEST JUMPDEST PUSH1 0x0 DUP4 ADD CALLDATALOAD PUSH8 0xFFFFFFFFFFFFFFFF DUP2 GT ISZERO PUSH2 0x874 JUMPI PUSH2 0x873 PUSH2 0x5EC JUMP JUMPDEST JUMPDEST PUSH2 0x880 DUP6 DUP3 DUP7 ADD PUSH2 0x7DB JUMP JUMPDEST SWAP3 POP POP PUSH1 0x20 PUSH2 0x891 DUP6 DUP3 DUP7 ADD PUSH2 0x82A JUMP JUMPDEST SWAP2 POP POP SWAP3 POP SWAP3 SWAP1 POP JUMP JUMPDEST PUSH1 0x0 DUP3 DUP3 MSTORE PUSH1 0x20 DUP3 ADD SWAP1 POP SWAP3 SWAP2 POP POP JUMP JUMPDEST PUSH32 0x4163636573732064656E69656400000000000000000000000000000000000000 PUSH1 0x0 DUP3 ADD MSTORE POP JUMP JUMPDEST PUSH1 0x0 PUSH2 0x8E2 PUSH1 0xD DUP4 PUSH2 0x89B JUMP JUMPDEST SWAP2 POP PUSH2 0x8ED DUP3 PUSH2 0x8AC JUMP JUMPDEST PUSH1 0x20 DUP3 ADD SWAP1 POP SWAP2 SWAP1 POP JUMP JUMPDEST PUSH1 0x0 PUSH1 0x20 DUP3 ADD SWAP1 POP DUP2 DUP2 SUB PUSH1 0x0 DUP4 ADD MSTORE PUSH2 0x911 DUP2 PUSH2 0x8D5 JUMP JUMPDEST SWAP1 POP SWAP2 SWAP1 POP JUMP JUMPDEST PUSH2 0x921 DUP2 PUSH2 0x5F1 JUMP JUMPDEST DUP3 MSTORE POP POP JUMP JUMPDEST PUSH1 0x0 PUSH1 0x20 DUP3 ADD SWAP1 POP PUSH2 0x93C PUSH1 0x0 DUP4 ADD DUP5 PUSH2 0x918 JUMP JUMPDEST SWAP3 SWAP2 POP POP JUMP JUMPDEST PUSH32 0x41697264726F7020616C726561647920636C61696D6564000000000000000000 PUSH1 0x0 DUP3 ADD MSTORE POP JUMP JUMPDEST PUSH1 0x0 PUSH2 0x978 PUSH1 0x17 DUP4 PUSH2 0x89B JUMP JUMPDEST SWAP2 POP PUSH2 0x983 DUP3 PUSH2 0x942 JUMP JUMPDEST PUSH1 0x20 DUP3 ADD SWAP1 POP SWAP2 SWAP1 POP JUMP JUMPDEST PUSH1 0x0 PUSH1 0x20 DUP3 ADD SWAP1 POP DUP2 DUP2 SUB PUSH1 0x0 DUP4 ADD MSTORE PUSH2 0x9A7 DUP2 PUSH2 0x96B JUMP JUMPDEST SWAP1 POP SWAP2 SWAP1 POP JUMP JUMPDEST PUSH1 0x0 DUP2 PUSH1 0x60 SHL SWAP1 POP SWAP2 SWAP1 POP JUMP JUMPDEST PUSH1 0x0 PUSH2 0x9C6 DUP3 PUSH2 0x9AE JUMP JUMPDEST SWAP1 POP SWAP2 SWAP1 POP JUMP JUMPDEST PUSH1 0x0 PUSH2 0x9D8 DUP3 PUSH2 0x9BB JUMP JUMPDEST SWAP1 POP SWAP2 SWAP1 POP JUMP JUMPDEST PUSH2 0x9F0 PUSH2 0x9EB DUP3 PUSH2 0x674 JUMP JUMPDEST PUSH2 0x9CD JUMP JUMPDEST DUP3 MSTORE POP POP JUMP JUMPDEST PUSH1 0x0 DUP2 SWAP1 POP SWAP2 SWAP1 POP JUMP JUMPDEST PUSH2 0xA11 PUSH2 0xA0C DUP3 PUSH2 0x809 JUMP JUMPDEST PUSH2 0x9F6 JUMP JUMPDEST DUP3 MSTORE POP POP JUMP JUMPDEST PUSH1 0x0 PUSH2 0xA23 DUP3 DUP6 PUSH2 0x9DF JUMP JUMPDEST PUSH1 0x14 DUP3 ADD SWAP2 POP PUSH2 0xA33 DUP3 DUP5 PUSH2 0xA00 JUMP JUMPDEST PUSH1 0x20 DUP3 ADD SWAP2 POP DUP2 SWAP1 POP SWAP4 SWAP3 POP POP POP JUMP JUMPDEST PUSH32 0x496E76616C69642070726F6F6673000000000000000000000000000000000000 PUSH1 0x0 DUP3 ADD MSTORE POP JUMP JUMPDEST PUSH1 0x0 PUSH2 0xA79 PUSH1 0xE DUP4 PUSH2 0x89B JUMP JUMPDEST SWAP2 POP PUSH2 0xA84 DUP3 PUSH2 0xA43 JUMP JUMPDEST PUSH1 0x20 DUP3 ADD SWAP1 POP SWAP2 SWAP1 POP JUMP JUMPDEST PUSH1 0x0 PUSH1 0x20 DUP3 ADD SWAP1 POP DUP2 DUP2 SUB PUSH1 0x0 DUP4 ADD MSTORE PUSH2 0xAA8 DUP2 PUSH2 0xA6C JUMP JUMPDEST SWAP1 POP SWAP2 SWAP1 POP JUMP JUMPDEST PUSH1 0x0 DUP2 MLOAD SWAP1 POP PUSH2 0xABE DUP2 PUSH2 0x813 JUMP JUMPDEST SWAP3 SWAP2 POP POP JUMP JUMPDEST PUSH1 0x0 PUSH1 0x20 DUP3 DUP5 SUB SLT ISZERO PUSH2 0xADA JUMPI PUSH2 0xAD9 PUSH2 0x5E7 JUMP JUMPDEST JUMPDEST PUSH1 0x0 PUSH2 0xAE8 DUP5 DUP3 DUP6 ADD PUSH2 0xAAF JUMP JUMPDEST SWAP2 POP POP SWAP3 SWAP2 POP POP JUMP JUMPDEST PUSH32 0x706C656173652074727920616761696E206C6174657200000000000000000000 PUSH1 0x0 DUP3 ADD MSTORE POP JUMP JUMPDEST PUSH1 0x0 PUSH2 0xB27 PUSH1 0x16 DUP4 PUSH2 0x89B JUMP JUMPDEST SWAP2 POP PUSH2 0xB32 DUP3 PUSH2 0xAF1 JUMP JUMPDEST PUSH1 0x20 DUP3 ADD SWAP1 POP SWAP2 SWAP1 POP JUMP JUMPDEST PUSH1 0x0 PUSH1 0x20 DUP3 ADD SWAP1 POP DUP2 DUP2 SUB PUSH1 0x0 DUP4 ADD MSTORE PUSH2 0xB56 DUP2 PUSH2 0xB1A JUMP JUMPDEST SWAP1 POP SWAP2 SWAP1 POP JUMP JUMPDEST PUSH2 0xB66 DUP2 PUSH2 0x809 JUMP JUMPDEST DUP3 MSTORE POP POP JUMP JUMPDEST PUSH1 0x0 PUSH1 0x40 DUP3 ADD SWAP1 POP PUSH2 0xB81 PUSH1 0x0 DUP4 ADD DUP6 PUSH2 0x686 JUMP JUMPDEST PUSH2 0xB8E PUSH1 0x20 DUP4 ADD DUP5 PUSH2 0xB5D JUMP JUMPDEST SWAP4 SWAP3 POP POP POP JUMP JUMPDEST PUSH1 0x0 DUP2 ISZERO ISZERO SWAP1 POP SWAP2 SWAP1 POP JUMP JUMPDEST PUSH2 0xBAA DUP2 PUSH2 0xB95 JUMP JUMPDEST DUP2 EQ PUSH2 0xBB5 JUMPI PUSH1 0x0 DUP1 REVERT JUMPDEST POP JUMP JUMPDEST PUSH1 0x0 DUP2 MLOAD SWAP1 POP PUSH2 0xBC7 DUP2 PUSH2 0xBA1 JUMP JUMPDEST SWAP3 SWAP2 POP POP JUMP JUMPDEST PUSH1 0x0 PUSH1 0x20 DUP3 DUP5 SUB SLT ISZERO PUSH2 0xBE3 JUMPI PUSH2 0xBE2 PUSH2 0x5E7 JUMP JUMPDEST JUMPDEST PUSH1 0x0 PUSH2 0xBF1 DUP5 DUP3 DUP6 ADD PUSH2 0xBB8 JUMP JUMPDEST SWAP2 POP POP SWAP3 SWAP2 POP POP JUMP JUMPDEST PUSH32 0x41697264726F7020636C61696D207472616E73666572206661696C6564000000 PUSH1 0x0 DUP3 ADD MSTORE POP JUMP JUMPDEST PUSH1 0x0 PUSH2 0xC30 PUSH1 0x1D DUP4 PUSH2 0x89B JUMP JUMPDEST SWAP2 POP PUSH2 0xC3B DUP3 PUSH2 0xBFA JUMP JUMPDEST PUSH1 0x20 DUP3 ADD SWAP1 POP SWAP2 SWAP1 POP JUMP JUMPDEST PUSH1 0x0 PUSH1 0x20 DUP3 ADD SWAP1 POP DUP2 DUP2 SUB PUSH1 0x0 DUP4 ADD MSTORE PUSH2 0xC5F DUP2 PUSH2 0xC23 JUMP JUMPDEST SWAP1 POP SWAP2 SWAP1 POP JUMP JUMPDEST PUSH1 0x0 PUSH1 0x20 DUP3 ADD SWAP1 POP PUSH2 0xC7B PUSH1 0x0 DUP4 ADD DUP5 PUSH2 0xB5D JUMP JUMPDEST SWAP3 SWAP2 POP POP JUMP JUMPDEST PUSH32 0x4E487B7100000000000000000000000000000000000000000000000000000000 PUSH1 0x0 MSTORE PUSH1 0x32 PUSH1 0x4 MSTORE PUSH1 0x24 PUSH1 0x0 REVERT INVALID LOG2 PUSH5 0x6970667358 0x22 SLT KECCAK256 EXP 0xAC PUSH19 0x9EAEE360A89FFA75ED894CA4EB0593161EB9C1 PUSH24 0x9C0159E601DB11676E64736F6C6343000818003300000000 "
        },
        "methodIdentifiers": {
          "ClaimAirdrop(bytes32[],uint256)": "fa27eeb5",
          "UpdateMerkleRoot(bytes32)": "ae8bdbc1",
          "erc20TokenAddress()": "f835cd3c"
        }
      }
    }
  }
}